:100000000C945D000C9485000C9485000C94850084
:100010000C9485000C9485000C9485000C9485004C
:100020000C9485000C9485000C9485000C9485003C
:100030000C9485000C9485000C9485000C9485002C
:100040000C94D3030C9485000C9485000C948500CB
:100050000C9485000C9485000C9485000C9485000C
:100060000C9485000C94850000000008000201003B
:100070000003040700000000000000000000000072
:10008000250028002B0000000000240027002A0083
:10009000040404040404040402020202020203032E
:1000A0000303030301020408102040800102040836
:1000B0001020010204081020000611241FBECFEFFB
:1000C000D8E0DEBFCDBF21E0A6E2B1E001C01D92C5
:1000D000AB34B207E1F711E0A0E0B1E0ECE1F1E10F
:1000E00002C005900D92A632B107D9F710E0CDE518
:1000F000D0E004C02197FE010E948A06CC35D107CA
:10010000C9F70E941D040C948C080C94000090E028
:10011000FC01EC55FF4F2491FC01E057FF4F849107
:10012000882399F090E0880F991FFC01EA57FF4F50
:10013000A591B491FC01E458FF4F859194918FB73C
:10014000F894EC91E22BEC938FBF089590E0FC01C2
:10015000E859FF4F2491FC01EC55FF4F3491FC010D
:10016000E057FF4FE491EE2309F43CC0222339F11C
:10017000233091F038F42130A9F0223001F584B514
:100180008F7D12C0273091F02830A1F02430B9F4CF
:10019000809180008F7D03C0809180008F77809355
:1001A00080000DC084B58F7784BD09C08091B000F8
:1001B0008F7703C08091B0008F7D8093B000F0E016
:1001C000EE0FFF1FE458FF4FA591B4919FB7F8942D
:1001D000611104C08C913095382302C0EC913E2B04
:1001E0003C939FBF08953FB7F89480912B01909165
:1001F0002C01A0912D01B0912E0126B5A89B05C020
:100200002F3F19F00196A11DB11D3FBFBA2FA92F95
:10021000982F8827820F911DA11DB11DBC01CD0112
:1002200042E0660F771F881F991F4A95D1F70895FE
:10023000CF92DF92EF92FF920F931F93CF93DF93B2
:100240006C017A018B01C0E0D0E0CE15DF0581F0B2
:10025000D8016D918D01D601ED91FC910190F08155
:10026000E02DC6010995892B11F02196EECF7E0174
:10027000C701DF91CF911F910F91FF90EF90DF9019
:10028000CF900895CF93DF93EC0160E08E810E94C0
:10029000A60061E08E810E94A60060E08E810E942F
:1002A000A6008BE891E00197F1F7DF91CF910895D7
:1002B000CF92DF92EF92FF920F931F93CF93DF9332
:1002C0006C017C0187E0E80EF11CC0E0D0E0062F55
:1002D00010E0B8010C2E02C0759567950A94E2F7FC
:1002E0006170F70181917F010E94A6002196C430C0
:1002F000D10579F7C601DF91CF911F910F91FF9042
:10030000EF90DF90CF900C944201CF92DF92EF926A
:10031000FF920F931F93CF93DF93EC01F62E642F80
:100320008C810E94A6008D818F3F19F060E00E94B1
:10033000A6008F850F2D10E084FF25C06E0187E099
:10034000C80ED11CE12CF12CB8010E2C02C0759501
:1003500067950A94E2F76170F60181916F010E943E
:10036000A600FFEFEF1AFF0A88E0E816F10461F734
:10037000CE01DF91CF911F910F91FF90EF90DF9011
:10038000CF900C944201B80184E0759567958A95E9
:10039000E1F7CE010E9458016F2DCE01DF91CF9180
:1003A0001F910F91FF90EF90DF90CF900C94580128
:1003B00040E0682F8FE291E00C948501CF93DF93AA
:1003C000823028F090913E01986090933E01809396
:1003D00042011092430180E48093440180E18093C4
:1003E000450180E580934601809133010E9487009A
:1003F000809134018F3F11F00E9487008091350178
:100400000E948700CFE2D1E09E012F5231408091BF
:100410003E0184FD03C084E090E002C088E090E0EB
:1004200021962817390724F48E810E948700ECCF8B
:100430008BE39DE00197F1F760E0809133010E942A
:10044000A60060E0809135010E94A60080913401F1
:100450008F3F19F060E00E94A60080913E0184FD6C
:1004600020C063E08FE291E00E945801CBE4D6E423
:10047000CE010197F1F763E08FE291E00E9458010D
:100480002197F1F763E08FE291E00E94580183E544
:1004900092E00197F1F762E08FE291E00E9458014B
:1004A00015C080620E94D8018BE496E40197F1F7B1
:1004B00080913E0180620E94D80183E592E001971D
:1004C000F1F780913E0180620E94D80180913E0147
:1004D00080620E94D80184E080933F018CE00E94FA
:1004E000D80181E00E94D8018BE39FE10197F1F7E9
:1004F00082E08093400186E0DF91CF910C94D80197
:1005000041E00E94850181E090E00895089580E037
:1005100090E00895FC01808191810C942807CF938D
:10052000DF93EC0188819981009711F00E942807E0
:10053000198218821D821C821B821A82DF91CF9140
:1005400008950E9477080F931F93CF93DF93EC01D8
:1005500088819981009729F02A813B8126173707E6
:1005600088F48B016F5F7F4F0E94B107009761F0A5
:10057000998388831B830A832C813D81232B11F46B
:10058000FC01108281E001C080E0DF91CF911F91DA
:100590000F910895EF92FF920F931F93CF93DF93E4
:1005A0006115710511F480E01CC041155105C1F0C1
:1005B0007B01EC018C819D818A01080F191FB80114
:1005C000CE010E94A302882371F3288139818C8196
:1005D0009D81B701820F931F0E9485081D830C83A4
:1005E00081E0DF91CF911F910F91FF90EF900895DF
:1005F000CF93DF93EC0142E050E066E171E00E94AE
:10060000CA02811103C0CE010E948F02CE01DF9188
:10061000CF910895EF92FF920F931F93CF93DF93A3
:10062000EC017B018A01BA010E94A302811104C07E
:10063000CE010E948F0207C01D830C83B701888101
:1006400099810E948508CE01DF91CF911F910F9172
:10065000FF90EF900895EF92FF920F931F93CF9327
:10066000DF93CDB7DEB762970FB6F894DEBF0FBE4B
:10067000CDBF8C01CB01F80111821082138212824E
:10068000158214824AE09E012F5F3F4F7901B90124
:100690000E941E06F70101900020E9F73197AF0193
:1006A0004E195F09B701C8010E940A0362960FB68E
:1006B000F894DEBF0FBECDBFDF91CF911F910F9198
:1006C000FF90EF900895FB01DC0111961C921E92A1
:1006D00013961C921E92129715961C921E921497B6
:1006E0008617970749F0608171816115710521F0C6
:1006F000448155810C940A030895AF92BF92CF9222
:10070000DF92EF92FF921F93CF93DF9300D000D040
:1007100000D0CDB7DEB76C017B01BC01CE010196E4
:100720000E94630310E080E1A82EB12CF701448100
:100730005581212F30E0C501841B950BF6016481A2
:100740007581861B970B2817390750F441E050E05C
:1007500069E171E0CE0101960E94CA021F5FE6CFF7
:10076000F70160817181CE0101960E94CA024D811C
:100770005E8169817A818FE291E00E941801CE0149
:1007800001960E948A0226960FB6F894DEBF0FBE2D
:10079000CDBFDF91CF911F91FF90EF90DF90CF9071
:1007A000BF90AF9008951F920F920FB60F92112431
:1007B0002F933F938F939F93AF93BF938091270184
:1007C00090912801A0912901B0912A013091260130
:1007D00023E0230F2D3720F40196A11DB11D05C084
:1007E00026E8230F0296A11DB11D209326018093B8
:1007F000270190932801A0932901B0932A018091A9
:100800002B0190912C01A0912D01B0912E01019608
:10081000A11DB11D80932B0190932C01A0932D015C
:10082000B0932E01BF91AF919F918F913F912F91E6
:100830000F900FBE0F901F901895CF93DF93CDB7F9
:10084000DEB7A4970FB6F894DEBF0FBECDBF789485
:1008500084B5826084BD84B5816084BD85B58260C5
:1008600085BD85B5816085BD80916E008160809376
:100870006E001092810080918100826080938100DF
:1008800080918100816080938100809180008160EF
:10089000809380008091B10084608093B10080914A
:1008A000B00081608093B00080917A008460809372
:1008B0007A0080917A00826080937A0080917A0039
:1008C000816080937A0080917A00806880937A00BA
:1008D0001092C10082E00E94DE0183E00E94870046
:1008E00083E00E948700EBE6F0E0E491E33019F149
:1008F00050F4E130D1F0E230E1F584B5806284BD9E
:1009000082E888BD3AC0E73011F1E83049F1E430BF
:1009100081F58091800080628093800082E890E081
:1009200090938B0080938A0028C084B5806884BD32
:1009300082E887BD22C0809180008068809380001B
:1009400082E890E0909389008093880016C080919F
:10095000B00080688093B00082E88093B3000DC03F
:100960008091B00080628093B00082E88093B400F0
:1009700004C061E083E00E94A6000BE31FE1CC24E9
:10098000C394D12C40E0E42E40E0F42E81E00E949C
:10099000D801C8010197F1F7E1E08091420181118E
:1009A000E0E0E195F0E0E15DFE4F848980680E941F
:1009B000D8018091020190910301880F991F00973F
:1009C00029F0909303018093020104C0D0920301A7
:1009D000C0920201809002019090030154012AE02C
:1009E000A20EB11CB401CE0107960E942B03BE01DA
:1009F000695F7F4FCE0101960E946303CE0101968D
:100A00000E94F802BC01CE014F960E946303CE0102
:100A100001960E948A02CE0107960E948A02B501C1
:100A2000CE0107960E942B03BE01695F7F4FCE0166
:100A300001960E946303CE0101960E94F802BC0158
:100A4000CE0149960E946303CE0101960E948A025C
:100A5000CE0107960E948A021C8A1B8A1E8A1D8A62
:100A6000188E1F8A44E050E06BE171E0CE0143969E
:100A70000E940A031E861D86188A1F861A8A198AF2
:100A800045E050E060E271E0CE010D960E940A035D
:100A900080E1881687E298068CF49091010181E04C
:100AA000892780930101882361F040E050E06AE1EA
:100AB00071E0CE0143960E940A0303C081E0809357
:100AC000010120E1A21627E2B2068CF49091000108
:100AD00081E0892780930001882361F040E050E0A5
:100AE0006AE171E0CE010D960E940A0303C081E025
:100AF00080930001BE01635F7F4FCE0101960E948B
:100B00006303BE016D5E7F4FCE0107960E946303B3
:100B1000BE016F5F7F4FCE0107960E947D03CE011D
:100B200007960E948A02CE0101960E948A02E091F5
:100B30004201E23010F4E15001C0E1E0F0E0E15D9B
:100B4000FE4F848980680E94D801BE01675E7F4F96
:100B5000CE0101960E946303BE01615E7F4FCE010C
:100B600007960E946303BE016F5F7F4FCE01079619
:100B70000E947D03CE0107960E948A02CE01019653
:100B80000E948A020E94F3004B015C0188EE482E0D
:100B900083E0582E612C712C0E94F300DC01CB0104
:100BA00088199909AA09BB09883E9340A105B10596
:100BB00098F381E0481A51086108710828EE820E06
:100BC00023E0921EA11CB11C411451046104710464
:100BD00019F7CE010D960E948A02CE0143960E941B
:100BE0008A02CE0149960E948A02CE014F960E9447
:100BF0008A02E114F10409F4C9CE0E940000BFCEBC
:100C0000EFE2F1E0138212828EE091E09183808323
:100C10008DE084838FEF85838CE086838BE08783F0
:100C20008AE0808789E0818788E08287138614863E
:100C300015861686178681E00C94DE01BB274A30A4
:100C400031F4992322F4BDE2909581959F4F0C9445
:100C50002A06BB27FB015527AA27880F991FAA1F21
:100C6000A41710F0A41B83955051B9F7A05DAA33C7
:100C700008F0A95DA193009779F7B111B193119292
:100C8000CB010C944306DC01FC01672F71917723A3
:100C9000E1F7329704C07C916D9370836291AE1737
:100CA000BF07C8F308952F923F924F925F926F92C1
:100CB0007F928F929F92AF92BF92CF92DF92EF92EC
:100CC000FF920F931F93CF93DF93CDB7DEB7CA1B6D
:100CD000DB0B0FB6F894DEBF0FBECDBF09942A8898
:100CE000398848885F846E847D848C849B84AA8440
:100CF000B984C884DF80EE80FD800C811B81AA81CD
:100D0000B981CE0FD11D0FB6F894DEBF0FBECDBF97
:100D1000ED010895EE0FFF1F0590F491E02D099469
:100D20000F931F93CF93DF938230910510F482E0ED
:100D300090E0E0914901F0914A0120E030E0A0E02C
:100D4000B0E0309719F14081518102811381481739
:100D50005907C8F08417950769F4109731F0129677
:100D60000C93129713961C9327C00093490110937C
:100D70004A0122C02115310519F04217530718F412
:100D80009A01BD01EF01DF01F801DBCF211531052B
:100D9000F9F0281B390B2430310580F48A819B81BE
:100DA0006115710521F0FB019383828304C0909348
:100DB0004A0180934901FE01329644C0FE01E20FD0
:100DC000F31F8193919322503109398328833AC0CC
:100DD0002091470130914801232B41F420910601D5
:100DE000309107013093480120934701209104017D
:100DF000309105012115310541F42DB73EB74091E1
:100E0000080150910901241B350BE0914701F09135
:100E10004801E217F307A0F42E1B3F0B28173907F0
:100E200078F0AC014E5F5F4F2417350748F04E0F46
:100E30005F1F50934801409347018193919302C0F3
:100E4000E0E0F0E0CF01DF91CF911F910F91089585
:100E5000CF93DF93009709F481C0FC01329713828E
:100E60001282A0914901B0914A01109781F420812A
:100E70003181820F931F209147013091480128173B
:100E8000390751F5F0934801E093470167C0ED0140
:100E900020E030E0CE17DF0740F44A815B819E01FD
:100EA00041155105F1F0EA01F5CFD383C2834081AA
:100EB0005181840F951FC817D90759F488819981EA
:100EC000840F951F0296918380838A819B819383EF
:100ED00082832115310529F4F0934A01E0934901F9
:100EE0003DC0E901FB83EA8349915991C40FD51FA5
:100EF000EC17FD0761F480819181840F951F0296A4
:100F0000E90199838883828193819B838A83E0E0CE
:100F1000F0E012968D919C911397009719F0FD01C6
:100F2000DC01F7CF8D919C9111979D012E5F3F4F72
:100F3000820F931F209147013091480128173907EC
:100F400069F4309729F410924A011092490102C0C5
:100F500013821282B0934801A0934701DF91CF9191
:100F60000895A0E0B0E0E7EBF7E00C945706EC0141
:100F7000009721F4CB010E949006B4C0FC01E60F5B
:100F8000F71F9C0122503109E217F30708F4A8C0AB
:100F9000D9010D911C91119706171707B0F0053074
:100FA000110508F49BC0C80104978617970708F439
:100FB00095C002501109061B170B019311936D93F5
:100FC0007C93CF010E94280789C05B01A01AB10A57
:100FD0004C01800E911EA0914901B0914A01612CF3
:100FE000712CE12CF12C109709F446C08D919C9145
:100FF0001197A815B905B1F56C0142E0C40ED11CDA
:10100000CA14DB0478F14C018A189B08640142E0A1
:10101000C40ED11C1296BC9012971396AC91B5E0F9
:10102000CB16D10440F0B282A38391828082D90191
:101030006D937C9309C00E5F1F4F800F911FF901C4
:1010400091838083EB2DFA2FE114F10431F0D70165
:101050001396FC93EE93129741C0F0934A01E093EC
:1010600049013CC06816790608F43C017D011296DE
:101070000D90BC91A02DB7CF809147019091480170
:1010800088169906E1F466167706C8F48091040183
:1010900090910501009741F48DB79EB740910801EA
:1010A00050910901841B950BE817F907C8F4F093D8
:1010B0004801E0934701F901718360830FC0CB01C0
:1010C0000E9490067C01009759F0A801BE010E9481
:1010D0007C08CE010E942807C70104C0CE0102C0CF
:1010E00080E090E0CDB7DEB7EEE00C94730681E0CF
:1010F00090E0F8940C948C08FB01DC0102C0019094
:101100000D9241505040D8F70895FB01DC01019049
:0C1110000D920020E1F70895F894FFCF45
:10111C000101010000004B01800000000000800272
:10112C0018018702860220250020004C6566740099
:06113C00526967687400AF
:00000001FF
